S00C0000554152542E73726563DC
S11300000C942A000C9447000C9447000C9447006D
S11300100C9447000C9447000C9447000C94470040
S11300200C9447000C9447000C9447000C94470030
S11300300C9447000C9447000C9447000C94470020
S11300400C9447000C9447000C9447000C94470010
S11300500C94470011241FBECFE5D8E0DEBFCDBF0E
S113006010E0A0E6B0E0ECE2F6E002C005900D92EC
S1130070AA36B107D9F710E0AAE6B0E001C01D9294
S1130080AA36B107E1F70E94B8010C9414030C944A
S113009000008830E8F4662371F44BB321E030E0CB
S11300A0B90102C0660F771F8A95E2F7CB018095EC
S11300B084238BBB08954BB321E030E0B90102C027
S11300C0660F771F8A95E2F7CB01842B8BBB0895CB
S11300D0982F9850983018F5662389F468B3282F20
S11300E030E02850304041E050E0CA0102C0880F9F
S11300F0991F2A95E2F78095862388BB089568B3F3
S1130100282F30E02850304041E050E0CA0102C0BE
S1130110880F991F2A95E2F7862B88BB0895982F9C
S11301209051983018F5662389F465B3282F30E090
S11301302051304041E050E0CA0102C0880F991FAD
S11301402A95E2F78095862385BB089565B3282F09
S113015030E02051304041E050E0CA0102C0880F35
S1130160991F2A95E2F7862B85BB0895982F9851FD
S1130170983010F5662389F462B3282F30E02851B3
S1130180304041E050E0CA0102C0880F991F2A950F
S1130190E2F78095862382BB089562B3282F30E06E
S11301A02851304041E050E0CA0102C0880F991F35
S11301B02A95E2F7862B82BB0895883058F429B338
S11301C030E0A90102C0559547958A95E2F7942F2E
S11301D0917038C0282F2850283078F446B350E066
S11301E0282F30E028503040CA0102C095958795E9
S11301F02A95E2F7982F917025C0282F2051283096
S113020078F443B350E0282F30E020513040CA0145
S113021002C0959587952A95E2F7982F917012C0A0
S1130220282F2851283070F440B350E0282F30E0B4
S113023028513040CA0102C0959587952A95E2F766
S1130240982F9170892F08958830E8F4662371F40B
S11302504AB321E030E0B90102C0660F771F8A95E6
S1130260E2F7CB01809584238ABB08954AB321E049
S113027030E0B90102C0660F771F8A95E2F7CB011F
S1130280842B8ABB0895982F9850983018F56623CC
S113029089F467B3282F30E02850304041E050E023
S11302A0CA0102C0880F991F2A95E2F78095862318
S11302B087BB089567B3282F30E02850304041E0D1
S11302C050E0CA0102C0880F991F2A95E2F7862BD5
S11302D087BB0895982F9051983018F5662389F4B8
S11302E064B3282F30E02051304041E050E0CA018F
S11302F002C0880F991F2A95E2F78095862384BB54
S1130300089564B3282F30E02051304041E050E09C
S1130310CA0102C0880F991F2A95E2F7862B84BB75
S11303200895982F9851983010F5662389F461B395
S1130330282F30E02851304041E050E0CA0102C08B
S1130340880F991F2A95E2F78095862381BB08952B
S113035061B3282F30E02851304041E050E0CA0119
S113036002C0880F991F2A95E2F7862B81BB089556
S1130370FFCF809162008130F9F4599A8091600036
S113038090916100A0E0B0E0880F991FAA1FBB1FE5
S1130390880F991FAA1FBB1F9C01AD01220F331F99
S11303A0441F551F60E072E18AE790E00E94F20268
S11303B02150304080E028C0882319F55998809155
S11303C0600090916100A0E0B0E0880F991FAA1F1F
S11303D0BB1F880F991FAA1FBB1F9C01AD01220FD1
S11303E0331F441F551F220F331F441F551F60E046
S11303F072E18AE790E00E94F2022150304080E0EE
S113040003C020E030E081E090B59F7790BD29B92A
S113041030BD90B5906890BD90916300913011F417
S1130420579A05C0992311F4579801C081E090911F
S11304306400913011F4569A05C0992311F456982A
S113044001C081E090916500913011F4559A05C086
S1130450992311F4559801C081E090916600992385
S113046031F4529890B59B7F90BD519821C0913042
S113047031F4529890B59B7F90BD519A19C0923037
S113048031F4529890B5946090BD519811C0933056
S113049031F4529890B5946090BD519A09C094304B
S11304A031F4529A90B5946090BD519A01C081E0A4
S11304B090916700913039F490B5906190BD90B5FA
S11304C0906290BD13C0923039F490B59F7E90BD78
S11304D090B5906290BD0AC0992339F490B59F7E7F
S11304E090BD90B59F7D90BD01C081E09091680062
S11304F0992321F490B5977F90BD0895913021F40C
S113050090B5986090BD089581E008959BB192954F
S11305109695977090FF03C08CB980E008959BB1C5
S113052092959695977081E090FD80E00895539A96
S11305308BB186FFFDCF5E9A80E00895539880E0EA
S113054008955F9B05C02CB1FC01208380E00895D1
S113055081E05F9980E00895549A5F9BFECF80E02C
S11305600895549880E008950F931F93CF938C01BE
S1130570FC019081933291F0C0E0892F0E948602A1
S11305800E9497020E949E02CF5FF801EC0FF11DBA
S11305909081933221F0882381F301C080E0CF91D0
S11305A01F910F9108950F931F93CF938C01FC011A
S11305B08081833291F0C0E0CF010E94A1020E94A9
S11305C0AC020E94B102CF5FF801EC0FF11D9081E3
S11305D0933221F0882381F301C080E0CF911F91F1
S11305E00F910895A1E21A2EAA1BBB1BFD010DC099
S11305F0AA1FBB1FEE1FFF1FA217B307E407F507CF
S113060020F0A21BB30BE40BF50B661F771F881FAA
S1130610991F1A9469F760957095809590959B0140
S10F0620AC01BD01CF010895F894FFCF98
S10D062C8025000000000301010016
S9030000FC
